{
  "contractName": "Todos",
  "abi": [
    {
      "anonymous": false,
      "inputs": [
        {
          "indexed": false,
          "internalType": "string",
          "name": "content",
          "type": "string"
        }
      ],
      "name": "AddedTodo",
      "type": "event"
    },
    {
      "anonymous": false,
      "inputs": [
        {
          "components": [
            {
              "internalType": "string",
              "name": "content",
              "type": "string"
            },
            {
              "internalType": "bool",
              "name": "completed",
              "type": "bool"
            }
          ],
          "indexed": false,
          "internalType": "struct Todos.Todo",
          "name": "_todo",
          "type": "tuple"
        }
      ],
      "name": "ChangedTodoState",
      "type": "event"
    },
    {
      "anonymous": false,
      "inputs": [
        {
          "indexed": false,
          "internalType": "string",
          "name": "content",
          "type": "string"
        }
      ],
      "name": "DeletedTodo",
      "type": "event"
    },
    {
      "inputs": [
        {
          "internalType": "uint256",
          "name": "",
          "type": "uint256"
        }
      ],
      "name": "todos",
      "outputs": [
        {
          "internalType": "string",
          "name": "content",
          "type": "string"
        },
        {
          "internalType": "bool",
          "name": "completed",
          "type": "bool"
        }
      ],
      "stateMutability": "view",
      "type": "function"
    },
    {
      "inputs": [
        {
          "internalType": "string",
          "name": "_content",
          "type": "string"
        }
      ],
      "name": "createTodo",
      "outputs": [
        {
          "components": [
            {
              "internalType": "string",
              "name": "content",
              "type": "string"
            },
            {
              "internalType": "bool",
              "name": "completed",
              "type": "bool"
            }
          ],
          "internalType": "struct Todos.Todo",
          "name": "",
          "type": "tuple"
        }
      ],
      "stateMutability": "nonpayable",
      "type": "function"
    },
    {
      "inputs": [
        {
          "internalType": "uint256",
          "name": "_index",
          "type": "uint256"
        }
      ],
      "name": "deleteTodo",
      "outputs": [],
      "stateMutability": "nonpayable",
      "type": "function"
    },
    {
      "inputs": [
        {
          "internalType": "uint256",
          "name": "_index",
          "type": "uint256"
        }
      ],
      "name": "toggleTodo",
      "outputs": [],
      "stateMutability": "nonpayable",
      "type": "function"
    }
  ],
  "bytecode": "0x608060405234801561001057600080fd5b50610ded806100206000396000f3fe608060405234801561001057600080fd5b506004361061004c5760003560e01c80636e3c673814610051578063bc8bc2b41461006d578063dc00282c1461009e578063e34f1221146100ba575b600080fd5b61006b60048036038101906100669190610821565b6100ea565b005b61008760048036038101906100829190610821565b61033f565b604051610095929190610902565b60405180910390f35b6100b860048036038101906100b39190610821565b610408565b005b6100d460048036038101906100cf9190610a67565b61057c565b6040516100e19190610b46565b60405180910390f35b6000805490508110610131576040517f08c379a000000000000000000000000000000000000000000000000000000000815260040161012890610bb4565b60405180910390fd5b600080828154811061014657610145610bd4565b5b9060005260206000209060020201600001805461016290610c32565b80601f016020809104026020016040519081016040528092919081815260200182805461018e90610c32565b80156101db5780601f106101b0576101008083540402835291602001916101db565b820191906000526020600020905b8154815290600101906020018083116101be57829003601f168201915b5050505050905060008290505b60016000805490506101fa9190610c93565b8110156102b45760006001826102109190610cc7565b8154811061022157610220610bd4565b5b90600052602060002090600202016000828154811061024357610242610bd4565b5b9060005260206000209060020201600082018160000190805461026590610c32565b61027092919061064b565b506001820160009054906101000a900460ff168160010160006101000a81548160ff02191690831515021790555090505080806102ac90610d1d565b9150506101e8565b5060008054806102c7576102c6610d66565b5b6001900381819060005260206000209060020201600080820160006102ec91906106d8565b6001820160006101000a81549060ff0219169055505090557f07d50b4304a53c8bca247cfb4bad87355559868908d83f8b2750f410ddcb8981816040516103339190610d95565b60405180910390a15050565b6000818154811061034f57600080fd5b906000526020600020906002020160009150905080600001805461037290610c32565b80601f016020809104026020016040519081016040528092919081815260200182805461039e90610c32565b80156103eb5780601f106103c0576101008083540402835291602001916103eb565b820191906000526020600020905b8154815290600101906020018083116103ce57829003601f168201915b5050505050908060010160009054906101000a900460ff16905082565b600080549050811061044f576040517f08c379a000000000000000000000000000000000000000000000000000000000815260040161044690610bb4565b60405180910390fd5b600080828154811061046457610463610bd4565b5b906000526020600020906002020160405180604001604052908160008201805461048d90610c32565b80601f01602080910402602001604051908101604052809291908181526020018280546104b990610c32565b80156105065780601f106104db57610100808354040283529160200191610506565b820191906000526020600020905b8154815290600101906020018083116104e957829003601f168201915b505050505081526020016001820160009054906101000a900460ff16151515158152505090508060200151158160200190151590811515815250507f9a679adc5c5a31c5d51486ec98f8c08d322b6bf60f2549ac2acba6f3edf301a3816040516105709190610b46565b60405180910390a15050565b610584610718565b60006040518060400160405280848152602001600015158152509050600081908060018154018082558091505060019003906000526020600020906002020160009091909190915060008201518160000190805190602001906105e8929190610734565b5060208201518160010160006101000a81548160ff02191690831515021790555050507f2bd7c56b9c2adbb97ae40b2ce4845c7a8e3a96a719222e201f220885077f83f28360405161063a9190610d95565b60405180910390a180915050919050565b82805461065790610c32565b90600052602060002090601f01602090048101928261067957600085556106c7565b82601f1061068a57805485556106c7565b828001600101855582156106c757600052602060002091601f016020900482015b828111156106c65782548255916001019190600101906106ab565b5b5090506106d491906107ba565b5090565b5080546106e490610c32565b6000825580601f106106f65750610715565b601f01602090049060005260206000209081019061071491906107ba565b5b50565b6040518060400160405280606081526020016000151581525090565b82805461074090610c32565b90600052602060002090601f01602090048101928261076257600085556107a9565b82601f1061077b57805160ff19168380011785556107a9565b828001600101855582156107a9579182015b828111156107a857825182559160200191906001019061078d565b5b5090506107b691906107ba565b5090565b5b808211156107d35760008160009055506001016107bb565b5090565b6000604051905090565b600080fd5b600080fd5b6000819050919050565b6107fe816107eb565b811461080957600080fd5b50565b60008135905061081b816107f5565b92915050565b600060208284031215610837576108366107e1565b5b60006108458482850161080c565b91505092915050565b600081519050919050565b600082825260208201905092915050565b60005b8381101561088857808201518184015260208101905061086d565b83811115610897576000848401525b50505050565b6000601f19601f8301169050919050565b60006108b98261084e565b6108c38185610859565b93506108d381856020860161086a565b6108dc8161089d565b840191505092915050565b60008115159050919050565b6108fc816108e7565b82525050565b6000604082019050818103600083015261091c81856108ae565b905061092b60208301846108f3565b9392505050565b600080fd5b600080fd5b7f4e487b7100000000000000000000000000000000000000000000000000000000600052604160045260246000fd5b6109748261089d565b810181811067ffffffffffffffff821117156109935761099261093c565b5b80604052505050565b60006109a66107d7565b90506109b2828261096b565b919050565b600067ffffffffffffffff8211156109d2576109d161093c565b5b6109db8261089d565b9050602081019050919050565b82818337600083830152505050565b6000610a0a610a05846109b7565b61099c565b905082815260208101848484011115610a2657610a25610937565b5b610a318482856109e8565b509392505050565b600082601f830112610a4e57610a4d610932565b5b8135610a5e8482602086016109f7565b91505092915050565b600060208284031215610a7d57610a7c6107e1565b5b600082013567ffffffffffffffff811115610a9b57610a9a6107e6565b5b610aa784828501610a39565b91505092915050565b600082825260208201905092915050565b6000610acc8261084e565b610ad68185610ab0565b9350610ae681856020860161086a565b610aef8161089d565b840191505092915050565b610b03816108e7565b82525050565b60006040830160008301518482036000860152610b268282610ac1565b9150506020830151610b3b6020860182610afa565b508091505092915050565b60006020820190508181036000830152610b608184610b09565b905092915050565b7f696e646578206f7574206f6620626f756e640000000000000000000000000000600082015250565b6000610b9e601283610859565b9150610ba982610b68565b602082019050919050565b60006020820190508181036000830152610bcd81610b91565b9050919050565b7f4e487b7100000000000000000000000000000000000000000000000000000000600052603260045260246000fd5b7f4e487b7100000000000000000000000000000000000000000000000000000000600052602260045260246000fd5b60006002820490506001821680610c4a57607f821691505b60208210811415610c5e57610c5d610c03565b5b50919050565b7f4e487b7100000000000000000000000000000000000000000000000000000000600052601160045260246000fd5b6000610c9e826107eb565b9150610ca9836107eb565b925082821015610cbc57610cbb610c64565b5b828203905092915050565b6000610cd2826107eb565b9150610cdd836107eb565b9250827fffffffffffffffffffffffffffffffffffffffffffffffffffffffffffffffff03821115610d1257610d11610c64565b5b828201905092915050565b6000610d28826107eb565b91507fffffffffffffffffffffffffffffffffffffffffffffffffffffffffffffffff821415610d5b57610d5a610c64565b5b600182019050919050565b7f4e487b7100000000000000000000000000000000000000000000000000000000600052603160045260246000fd5b60006020820190508181036000830152610daf81846108ae565b90509291505056fea264697066735822122084725656977a17bf51085f2e5286eb820d88515a7c0fff294453eb79c649540664736f6c634300080b0033",
  "immutableReferences": {},
  "source": "// SPDX-License-Identifier: MIT\npragma solidity  ^0.8.2;\n\ncontract Todos {\n\n    struct Todo {\n        string content;\n        bool completed;        \n    }\n\n    Todo[] public todos;\n\n    event AddedTodo(string content);\n    event DeletedTodo(string content);\n    event ChangedTodoState(Todo _todo);\n\n    function createTodo(string memory _content) public returns( Todo memory ) {\n        Todo memory _newTodo = Todo(_content,false);\n\n        todos.push(_newTodo);\n        emit AddedTodo(_content);\n\n        return _newTodo;\n    }\n\n    function deleteTodo(uint _index) public {\n        require(_index < todos.length, \"index out of bound\");\n\n        string memory _content = todos[_index].content;\n\n        for (uint i = _index; i < todos.length - 1; i++) {\n            todos[i] = todos[i + 1];\n        }\n        todos.pop();\n\n        emit DeletedTodo(_content);\n    }\n\n\n    function toggleTodo(uint _index) public{\n        require(_index < todos.length, \"index out of bound\");\n\n        Todo memory _todo = todos[_index];\n        _todo.completed = !_todo.completed;\n\n        emit ChangedTodoState(_todo);\n    }\n\n}\n\n",
  "sourcePath": "/Users/mnkhod/Projects/Diverse-SmartContract-Examples/diverse-todo-single/contracts/Todos.sol",
  "compiler": {
    "name": "solc",
    "version": "0.8.11+commit.d7f03943.Emscripten.clang"
  },
  "schemaVersion": "3.4.3",
  "updatedAt": "2022-01-16T11:08:10.528Z",
  "devdoc": {
    "kind": "dev",
    "methods": {},
    "version": 1
  },
  "userdoc": {
    "kind": "user",
    "methods": {},
    "version": 1
  }
}